:1000000010C0BDC018951895189518951895189595
:100010001895189518951895189518951895189578
:1000200018958FE58DBFC8E3E0E24E2E81E08EBFCC
:10003000D1E0F1E05F2EA89584B7082E877F84BFBA
:1000400088E1992781BD91BDEEEFF0E0A0E6B0E038
:1000500088278D933197E9F76624D09AD19AD29A5E
:10006000D39A85B7836085BFBA98B898B99AC19A70
:1000700078947BB770647BBF8AEA8093670080E0E6
:100080008093660080E080936700A9E3B0E08C91E4
:1000900087FB80F9809580FBA6E6B0E08C9180F923
:1000A0008C93A9E3B0E08C9186FB80F9809580FB6E
:1000B000A6E6B0E08C9181F98C93A9E3B0E08C9135
:1000C00085FB80F9809580FBA6E6B0E08C9182F9F3
:1000D0008C935CEC84E0E9E31ED250EF84E0E9E32A
:1000E0001AD250E084E0E9E316D284E0E9E3F1D1EA
:1000F000A8E6B0E0E6E6F0E055D25CEC84E0E9E3A7
:100100000AD25AEA84E0E9E306D25091660084E01C
:10011000E9E301D2BB27A6E184E0E9E321E02A93E9
:100120001CD2A7E6B0E05C9384E0E9E3D2D1D19A97
:10013000D39ADB98A7E6B0E0119698E08E919830BC
:1001400018F4392F992702C038E09850881FD998A1
:1001500008F4D99A00000000DB9A00000000DB9848
:10016000000000003A9591F7992341F782E0E1E021
:10017000F0E0ABE39DD184E690E07BD180CF0F929D
:100180001F922F923F924F925F927F92AF92BF92B7
:100190000F931F932F933F934F935F936F937F938F
:1001A0008F939F93AF93BF93CF93DF93EF93FF937F
:1001B0008FB78F9384E0E9E38CD1D89AA0E6B0E0C2
:1001C000E5E027D1D89881E0E0E6F0E001E00A938D
:1001D000A9E6B0E019D2A9E6B0E0FCD1A6E6B0E00D
:1001E0000C9300916600003009F00DC05CEC84E0D7
:1001F000E9E391D150EF84E0E9E38DD150E084E070
:10020000E9E389D1C2C000916600013009F011C054
:100210005CEC84E0E9E37FD155E584E0E9E37BD160
:1002200055EA84E0E9E377D1D89A8AE090E021D1D9
:10023000ACC000916600023009F02DC082E0E0E61B
:10024000F0E002E00A93A9E6B0E0DED1A9E6B0E072
:10025000C1D1A8E6B0E00C935CEC84E0E9E35BD1AB
:100260005AEA84E0E9E357D15091680084E0E9E379
:1002700052D1BB27A6E184E0E9E321E02A936DD1C6
:10028000A7E6B0E05C93A8E0B1E0E7E6F0E08AD151
:10029000E8D0E3D07AC000916600033009F042C094
:1002A00082E0E0E6F0E002E00A93A9E6B0E0ACD13B
:1002B000A9E6B0E08FD1A8E6B0E00C9384E0E0E6D8
:1002C000F0E002E00A93A9E6B0E09ED1A9E6B0E032
:1002D00081D1A7E6B0E00C935CEC84E0E9E31BD1AC
:1002E0005FE084E0E9E317D15091680084E0E9E33E
:1002F00012D15091670084E0E9E30DD184E0E9E395
:10030000E8D05CEC84E0E9E306D155E584E0E9E37C
:1003100002D155EA84E0E9E3FED0DC9A8AE090E07D
:10032000A8D033C000916600043009F02EC080E0F0
:1003300080936600A9E3B0E08C9187FB80F98095FB
:1003400080FBA6E6B0E08C9180F98C93A9E3B0E045
:100350008C9186FB80F9809580FBA6E6B0E08C91BD
:1003600081F98C93A9E3B0E08C9185FB80F98095AD
:1003700080FBA6E6B0E08C9182F98C93A8E0B1E016
:10038000E6E6F0E00FD16DD068D084E0E9E3A1D0DB
:100390008F918FBFFF91EF91DF91CF91BF91AF917F
:1003A0009F918F917F916F915F914F913F912F918D
:1003B0001F910F91BF90AF907F905F904F903F90B3
:1003C0002F901F900F901895F894FFCF3197F1F769
:1003D0000895689462F80895E89462F808958F93F8
:1003E0009F9388E090E00197F1F79F918F91089596
:1003F00029E0B099FECFF3DFF2DFF1DF8894B09906
:1004000008942A9519F087959795F6CF0895A8E056
:10041000B1E0EEDF8D3029F0EE23D9F38D93EA952C
:10042000F8CF88278C9308958F939F9388E090E06E
:100430000197F1F79F918F91089580952AE090E0C0
:10044000089410F4C19802C0C19A0000EDDFECDFFF
:10045000969587952A95A9F708958DE0EEDF8AE0B5
:10046000ECCFA8E0B1E08D91882311F0E6DFFBCF5F
:100470000895EF93FF93EE27E82BE92B31F0EAEF95
:10048000F0E03197F1F70197D1F7FF91EF910895DF
:10049000813618F08B3708F48F7D089591E088231A
:1004A00021F08894991F8A95E9F7892F90950895EE
:1004B000BB27F4DF9C9198279C933197F1F79827FD
:1004C0009C9308950181082B0183128119231283C3
:1004D000089582DFFF27E2DFF5DFEF93FF93E4E784
:1004E000F0E074DFFF91EF91182B12830923018351
:1004F000EF93FF93EEE0F0E069DFFF91EF91108161
:10050000182309F066DFEF93FF93E3E6F0E05EDF88
:10051000FF91EF910895C2DFFF2721E048E005C079
:10052000BDDFFF2729915D9148E0CCDF579510F49E
:10053000182B1283EF93FF93EAE0F0E047DFFF917F
:10054000EF91182B1283EF93E2E0EA95F1F7EF9128
:100550004A9559F72A9539F70895A0DFFF27299181
:1005600048E05527AFDF09230183EF93E1E0EA95E7
:10057000F1F7EF9188941081182309F008945795AA
:10058000EF93FF93EAE0F0E021DFFF91EF914A95CE
:1005900049F75D932A9521F70895000F111F221F37
:1005A000331F089541E003C042E001C044E0E40F7E
:1005B0008827F81F8291982F829505D0892F03D024
:1005C0004A95C1F71EC08F708A3008F0895F805D40
:1005D0008D93089500271127222733278D91882393
:1005E00079F0DBDFDADFD9DFD8DF52DF815408F4BE
:1005F000895F865F080F8827181F281F381FEECFD6
:10060000089588278D93089509919191992351F028
:100610008A95D9F73197002329F081918D930A9516
:060620008823C9F7EECFAC
:00000001FF
