:1000000012C031C41895189518951895189518951B
:100010001895189518951895189518951895189578
:100020001895189518958FE58DBFC8E3E0E24E2E20
:1000300084E08EBFD4E0F4E05F2EA89584B7082E4C
:10004000877F84BF88E1992781BD91BDEEEFF3E002
:10005000A0E6B0E088278D933197E9F752D4662463
:100060008FEF84BB889A909A8998E4E4FBE035D4BA
:100070008B9A8C9A85B78C7F85BF78947BB7706498
:100080007BBFA0E6B0E0E8E0E7D4A0E6B0E0E0E5C2
:10009000FBE045D509F00BC0A0E6B0E0E8E0DCD419
:1000A000A0E6B0E00DD5A3E7B0E00C93BCD3E9CF58
:1000B000F894FFCF18D4E8E5FBE00FD48C9AEAEF70
:1000C000F4E081E490E00197949A86D4949884D4E3
:1000D000482F492BC1F78DE790E0CCD48C9AEAEBFE
:1000E000F3E087E590E00197949A76D4949874D4DD
:1000F000482F492BC1F78DE790E0BCD48C9AE2E5FC
:10010000F3E082E690E00197949A66D4949864D4E0
:10011000482F492BC1F78DE790E0ACD48C9AEAEBDD
:10012000F3E087E590E00197949A56D4949854D4DC
:10013000482F492BC1F78C9AEBECF2E085E790E071
:100140000197949A49D4949847D4482F492BC1F7E2
:100150008DE790E08FD48C9AE6EFF2E08EE690E0A7
:100160000197949A39D4949837D4482F492BC1F7E2
:100170008DE790E07FD48C9AE2E5F3E082E690E0B0
:100180000197949A29D4949827D4482F492BC1F7E2
:100190008DE790E06FD48C9AE6EFF2E08EE690E087
:1001A0000197949A19D4949817D4482F492BC1F7E2
:1001B0008C9AEAEBF3E087E590E00197949A0CD4EF
:1001C00094980AD4482F492BC1F78DE790E052D478
:1001D000E1E0F0E08DD3A4E7B0E08C918F5F8C93E9
:1001E00080E08093740008957ED3E4E6FBE075D34D
:1001F0008C9AEFE6F4E08BE492E00197949AECD3CA
:100200009498EAD3482F492BC1F78C9AE3EFF3E097
:1002100083E992E00197949ADFD39498DDD3482F35
:10022000492BC1F78C9AE4E8F1E080E793E001976D
:10023000949AD2D39498D0D3482F492BC1F78C9A53
:10024000E6EFF2E080E793E00197949AC5D39498A3
:10025000C3D3482F492BC1F78C9AE2E5F3E088E835
:1002600091E00197949AB8D39498B6D3482F492B2C
:10027000C1F78C9AE5E8F3E089EB90E00197949A56
:10028000ABD39498A9D3482F492BC1F78C9AE3EFAD
:10029000F3E083E992E00197949A9ED394989CD3DB
:1002A000482F492BC1F78C9AE5E8F3E082E791E00B
:1002B0000197949A91D394988FD3482F492BC1F7E3
:1002C0008C9AE2E5F3E088E891E00197949A84D370
:1002D000949882D3482F492BC1F78C9AE5E8F3E034
:1002E00084EE92E00197949A77D3949875D3482F2F
:1002F000492BC1F78C9AE3EFF3E08AE491E0019790
:10030000949A6AD3949868D3482F492BC1F78C9A52
:10031000EFE6F4E086E291E00197949A5DD3949839
:100320005BD3482F492BC1F78C9AE3EBF4E085E1CE
:1003300091E00197949A50D394984ED3482F492B2B
:10034000C1F78C9AEFE6F4E08BE492E00197949A7F
:1003500043D3949841D3482F492BC1F78C9AE3EBB0
:10036000F4E085E191E00197949A36D3949834D3E0
:10037000482F492BC1F78C9AE1E5F1E080E79FE037
:100380000197949A29D3949827D3482F492BC1F7E2
:100390008C9AE4E8F1E080E79DE00197949A1CD301
:1003A00094981AD3482F492BC1F78C9AEFE6F4E0C2
:1003B00087E994E00197949A0FD394980DD3482F2E
:1003C000492BC1F78C9AE3EFF3E083E992E00197C0
:1003D000949A02D3949800D3482F492BC1F78C9A52
:1003E000E4E8F1E080E793E00197949AF5D29498DD
:1003F000F3D2482F492BC1F78C9AE6EFF2E080E761
:1004000093E00197949AE8D29498E6D2482F492B2A
:10041000C1F78C9AE2E5F3E088E891E00197949ABD
:10042000DBD29498D9D2482F492BC1F78C9AE5E8B2
:10043000F3E089EB90E00197949ACED29498CCD2D5
:10044000482F492BC1F78C9AE3EFF3E083E992E060
:100450000197949AC1D29498BFD2482F492BC1F7E3
:100460008C9AE5E8F3E082E791E00197949AB4D2A0
:100470009498B2D2482F492BC1F78C9AE2E5F3E069
:1004800088E891E00197949AA7D29498A5D2482F32
:10049000492BC1F78C9AE5E8F3E084EE92E00197EE
:1004A000949A9AD2949898D2482F492BC1F78C9A53
:1004B000E3EFF3E08AE491E00197949A8DD2949867
:1004C0008BD2482F492BC1F78C9AEFE6F4E086E2F5
:1004D00091E00197949A80D294987ED2482F492B2C
:1004E000C1F78C9AE3EBF4E085E191E00197949AEF
:1004F00073D2949871D2482F492BC1F78C9AEFE6AA
:10050000F4E08BE492E00197949A66D2949864D2D6
:10051000482F492BC1F78C9AE3EBF4E085E191E099
:100520000197949A59D2949857D2482F492BC1F7E2
:100530008C9AE3EBF4E085E191E00197949A4CD238
:1005400094984AD2482F492BC1F78C9AEFE6F4E0F1
:100550008BE492E00197949A3FD294983DD2482F31
:10056000492BC1F78C9AE3EFF3E08AE491E001971D
:10057000949A32D2949830D2482F492BC1F78C9A52
:10058000E5E8F3E084EE92E00197949A25D29498FE
:1005900023D2482F492BC1F78C9AEFE6F4E087E984
:1005A00094E00197949A18D2949816D2482F492B28
:1005B000C1F7E2E0F0E09CD1089595D1E8E7FBE0D7
:1005C0008CD18C9AE3EAF2E08CE790E00197949A60
:1005D00003D2949801D2482F492BC1F78C9AE6EFA9
:1005E000F2E08EE690E00197949AF6D19498F4D1D7
:1005F000482F492BC1F78C9AE3EAF2E088EF90E0AC
:100600000197949AE9D19498E7D1482F492BC1F7E3
:100610008DE790E02FD28C9AE3EFF3E085EA90E04B
:100620000197949AD9D19498D7D1482F492BC1F7E3
:100630008AEF90E01FD28DE790E01CD28C9AEDE714
:10064000F2E083E890E00197949AC6D19498C4D1DF
:10065000482F492BC1F78C9AE3EAF2E08CE790E04F
:100660000197949AB9D19498B7D1482F492BC1F7E3
:100670008C9AEDE7F2E083E890E00197949AACD190
:100680009498AAD1482F492BC1F78DE790E0F2D179
:100690008C9AE3EAF2E08CE790E00197949A9CD17F
:1006A00094989AD1482F492BC1F78DE790E0E2D179
:1006B0008C9AE6EFF2E08CED90E00197949A8CD161
:1006C00094988AD1482F492BC1F78DE790E0D2D179
:1006D0008AEF90E0CFD18C9AEDE7F2E083E890E0EA
:1006E0000197949A79D1949877D1482F492BC1F7E3
:1006F0008C9AE3EAF2E08CE790E00197949A6CD14F
:1007000094986AD1482F492BC1F78C9AEDE7F2E013
:1007100086E091E00197949A5FD194985DD1482F3B
:10072000492BC1F78DE790E0A5D18C9AE3EFF3E078
:1007300085EA90E00197949A4FD194984DD1482F33
:10074000492BC1F78AEF90E095D18DE790E092D1E7
:100750008C9AE6EFF2E08EE690E00197949A3CD115
:1007600094983AD1482F492BC1F78C9AE2E5F3E0EF
:1007700082E690E00197949A2FD194982DD1482F3A
:10078000492BC1F78C9AE6EFF2E08EE690E00197F4
:10079000949A22D1949820D1482F492BC1F78DE704
:1007A00090E068D18C9AE2E5F3E082E690E0019770
:1007B000949A12D1949810D1482F492BC1F78DE704
:1007C00090E058D18C9AE5E8F3E08CE590E0019751
:1007D000949A02D1949800D1482F492BC1F78DE704
:1007E00090E048D18C9AE6EFF2E08EE690E0019737
:1007F000949AF2D09498F0D0482F492BC1F78DE706
:1008000090E038D18C9AE2E5F3E084EC90E0019737
:10081000949AE2D09498E0D0482F492BC1F7E2E0B7
:10082000F0E066D0089500917300003009F007C031
:1008300041DCA3E7B0E08C918F5F8C930895009129
:100840007300013009F008C0CFDCA3E7B0E08C9161
:100850008F5F8C93089505C0B0DE80E080937300B5
:100860000895089508950F921F922F923F924F92EC
:100870005F927F92AF92BF920F931F932F933F93FC
:100880004F935F936F937F938F939F93AF93BF9398
:10089000CF93DF93EF93FF938FB78F93C4DF8F9145
:1008A0008FBFFF91EF91DF91CF91BF91AF919F915A
:1008B0008F917F916F915F914F913F912F911F91F8
:1008C0000F91BF90AF907F905F904F903F902F908F
:1008D0001F900F901895A7DF0895DBD0802D11F0A1
:1008E00052D0FBCF089581E054D008D080E851C0A9
:1008F00088EE93E0BFD03197D9F7089583E0992728
:10090000B9C08AEF90E0B6D0B89AB99ABA9ABB9AB1
:10091000BC9ABD9AC59885E090E0ACD0C498C098C8
:10092000C198C29AC39AC49AEF93FF93E4ECF0E0A3
:1009300050D0FF91EF91C4989AD0C49AEF93FF934F
:10094000E4ECF0E046D0FF91EF91C49890D0C49AC7
:10095000EF93FF93E4ECF0E03CD0FF91EF91C4986B
:1009600086D0C398C49AEF93FF93E4ECF0E031D0C3
:10097000FF91EF91C4987BD088E20BD08EE009D034
:1009800086E007D00895C59A829505D004D06FD02F
:100990000895C598F9CF859510F4C39A01C0C398FE
:1009A000859510F4C29A01C0C298859510F4C19A39
:1009B00001C0C198859510F4C09A01C0C098C49A2E
:1009C000EF93FF93E4ECF0E004D0FF91EF91C49833
:1009D00008953197F1F70895AE2FBF2F11974A2F41
:1009E0004B2BE1F70895689462F80895E89462F853
:1009F00008958F939F9383E690E00197F1F79F917D
:100A00008F91089580952AE090E0089410F49098D2
:100A100002C0909A0000EDDFECDF969587952A954D
:100A2000A9F708958F939F9383E690E00197F1F7DC
:100A30009F918F91089529E08199FECFF3DFF2DF36
:100A4000F1DF8894819908942A9519F087959795F4
:100A5000F6CF0895A8E0B4E0EEDF8D3029F0EE2364
:100A6000D9F38D93EA95F8CF88278C93089581E088
:100A700090E000C0EF93FF93EE27E82BE92B31F0D5
:100A8000E0EDF7E03197F1F70197D1F7FF91EF91A2
:100A90000895C895319600200895040F151F261F4C
:100AA000371F0895000F111F221F331F089500954F
:100AB0001095209530950F5F1F4F2F4F3F4F089592
:100AC00000271127222733271DD08A3328F48033AB
:100AD00018F005D015D0F9CF0EF4E9CF0895805362
:100AE0008F93402F512F622F732FDCDFDBDFD5DF99
:100AF000D9DF8F919927080F191F291F391F0895D2
:100B00008D910895E894FCDF8032E9F38B32D9F3BC
:100B10008930C9F38D3211F46894F2CF0895689446
:100B200001C0E894AF93BF938D9116F0919102C0EC
:100B3000B0DF902D891718F011F48823A9F7BF9121
:100B4000AF91089548656C6C6F20776F726C64008C
:100B50004368616E676500004C6162206D656C6F73
:100B6000647900004D792048656172742057696C82
:100B70006C20476F204F6E0046696E616C20436F9A
:080B8000756E74646F776E005E
:00000001FF
