:1000000010C0189518951895189518951895189565
:100010001895189518951895189518951895189578
:1000200018958FE58DBFC8E3E0E24E2E81E08EBFCC
:10003000D1E0F1E05F2EA89584B7082E877F84BFBA
:1000400088E1992781BD91BDEEEFF0E0A0E6B0E038
:1000500088278D933197E9F76624D09AD19AD29A5E
:10006000D39AD598D698D798B898B99AC19AA0E655
:10007000B0E0E5E09DD081E0E0E6F0E001E00A9349
:10008000A6E6B0E077D1A6E6B0E05AD1A8E6B0E0A7
:100090000C9300916800003009F02EC082E0E0E689
:1000A000F0E002E00A93AAE6B0E064D1AAE6B0E08C
:1000B00047D1A9E6B0E00C9382E0E0E6F0E004E08E
:1000C0000A93AAE6B0E056D1AAE6B0E039D1A8E694
:1000D000B0E00C935CEC84E0E9E3D3D05FE084E033
:1000E000E9E3CFD05091690084E0E9E3CAD05091B0
:1000F000680084E0E9E3C5D000916800013009F0B0
:100100002EC080E080936800A9E3B0E08C9187FB6B
:1001100080F9809580FBA8E6B0E08C9180F98C9303
:10012000A9E3B0E08C9186FB80F9809580FBA8E67E
:10013000B0E08C9181F98C93A9E3B0E08C9185FBC0
:1001400080F9809580FBA8E6B0E08C9182F98C93D1
:10015000A8E0B1E0E8E6F0E0DBD052D04DD084E09A
:10016000E9E36DD084CFF894FFCF3197F1F708958C
:10017000689462F80895E89462F808958F939F93C5
:1001800088E090E00197F1F79F918F91089529E021
:10019000B099FECFF3DFF2DFF1DF8894B0990894D5
:1001A0002A9519F087959795F6CF0895A8E0B1E0C4
:1001B000EEDF8D3029F0EE23D9F38D93EA95F8CF59
:1001C00088278C9308958F939F9388E090E0019700
:1001D000F1F79F918F91089580952AE090E008941F
:1001E00010F4C19802C0C19A0000EDDFECDF9695D3
:1001F00087952A95A9F708958DE0EEDF8AE0ECCF88
:10020000A8E0B1E08D91882311F0E6DFFBCF0895DF
:10021000813618F08B3708F48F7D089591E088239C
:1002200021F08894991F8A95E9F7892F9095089570
:100230000181082B018312811923128308959BDF0A
:10024000FF27ECDFF5DFEF93FF93E4E7F0E08DDFCE
:10025000FF91EF91182B128309230183EF93FF93F2
:10026000EEE0F0E082DFFF91EF911081182309F0BA
:100270007FDFEF93FF93E3E6F0E077DFFF91EF910D
:100280000895CCDFFF2721E048E005C0C7DFFF2746
:1002900029915D9148E0CCDF579510F4182B12831B
:1002A000EF93FF93EAE0F0E060DFFF91EF91182B0E
:1002B0001283EF93E2E0EA95F1F7EF914A9559F74F
:1002C0002A9539F70895AADFFF27299148E0552795
:1002D000AFDF09230183EF93E1E0EA95F1F7EF91B6
:1002E00088941081182309F008945795EF93FF9391
:1002F000EAE0F0E03ADFFF91EF914A9549F75D932C
:100300002A9521F70895000F111F221F331F08950A
:1003100041E003C042E001C044E0E40F8827F81F39
:100320008291982F829505D0892F03D04A95C1F7E5
:100330001EC08F708A3008F0895F805D8D930895AC
:1003400000271127222733278D91882379F0DBDFBF
:10035000DADFD9DFD8DF5CDF815408F4895F865F9C
:10036000080F8827181F281F381FEECF08958827E9
:100370008D93089509919191992351F08A95D9F718
:100380003197002329F081918D930A958823C9F72D
:02039000EECFAE
:00000001FF
