:1000000010C0189518951895189518951895189565
:100010001895189518951895189518951895189578
:1000200018958FE58DBFC8E3E0E24E2E81E08EBFCC
:10003000D1E0F1E05F2EA89584B7082E877F84BFBA
:1000400088E1992781BD91BDEEEFF0E0A0E6B0E038
:1000500088278D933197E9F76624B898B99880E09E
:10006000E9E31DD1A0E6B0E0E5E0C4D081E0E0E640
:10007000F0E001E00A93A9E6B0E0ACD1A9E6B0E077
:100080008FD1A6E6B0E00C9300916600003009F035
:100090000DC05CEC80E0E9E324D150EF80E0E9E3BF
:1000A00020D150E080E0E9E31CD17BC000916600E4
:1000B000013009F011C05CEC80E0E9E312D155E5B4
:1000C00080E0E9E30ED155EA80E0E9E30AD1D89A6D
:1000D0008AE090E0BED065C000916600023009F071
:1000E0002DC082E0E0E6F0E002E00A93A9E6B0E08D
:1000F00071D1A9E6B0E054D1A8E6B0E00C935CEC75
:1001000080E0E9E3EED05AEA80E0E9E3EAD05091FA
:10011000680080E0E9E3E5D0BB27A6E180E0E9E301
:1001200021E02A9300D1A7E6B0E05C93A8E0B1E01B
:10013000E7E6F0E01DD164DF63DF33C000916600C5
:10014000033009F02EC082E0E0E6F0E002E00A931E
:10015000A9E6B0E03FD1A9E6B0E022D1A8E6B0E040
:100160000C9384E0E0E6F0E002E00A93A9E6B0E058
:1001700031D1A9E6B0E014D1A7E6B0E00C935CEC75
:1001800080E0E9E3AED05FE080E0E9E3AAD05091FF
:10019000680080E0E9E3A5D05091670080E0E9E3E2
:1001A000A0D080E0E9E37BD05DCFF894FFCF31971A
:1001B000F1F70895689462F80895E89462F8089554
:1001C0008F939F9388E090E00197F1F79F918F9133
:1001D000089529E0B099FECFF3DFF2DFF1DF8894D4
:1001E000B09908942A9519F087959795F6CF0895B8
:1001F000A8E0B1E0EEDF8D3029F0EE23D9F38D9346
:10020000EA95F8CF88278C9308958F939F9388E081
:1002100090E00197F1F79F918F91089529E0B199AE
:10022000FECFF3DFF2DFF1DF8894B19908942A95CD
:1002300019F087959795F6CF08958DE0E1DE8AE075
:10024000DFCEA8E0B1E08D91882311F0D9DEFBCF9D
:100250000895EF93FF93EE27E82BE92B31F0EAEFB7
:10026000F0E03197F1F70197D1F7FF91EF91089501
:10027000813618F08B3708F48F7D089591E088233C
:1002800021F08894991F8A95E9F7892F9095089510
:100290000181082B018312811923128308958DDFB8
:1002A000FF27ECDFF5DFEF93FF93E4E7F0E07FDF7C
:1002B000FF91EF91182B128309230183EF93FF9392
:1002C000EEE0F0E074DFFF91EF911081182309F068
:1002D00071DFEF93FF93E3E6F0E069DFFF91EF91C9
:1002E0000895CCDFFF2721E048E005C0C7DFFF27E6
:1002F00029915D9148E0CCDF579510F4182B1283BB
:10030000EF93FF93EAE0F0E052DFFF91EF91182BBB
:100310001283EF93E2E0EA95F1F7EF914A9559F7EE
:100320002A9539F70895AADFFF27299148E0552734
:10033000AFDF09230183EF93E1E0EA95F1F7EF9155
:1003400088941081182309F008945795EF93FF9330
:10035000EAE0F0E02CDFFF91EF914A9549F75D93D9
:100360002A9521F70895000F111F221F331F0895AA
:1003700041E003C042E001C044E0E40F8827F81FD9
:100380008291982F829505D0892F03D04A95C1F785
:100390001EC08F708A3008F0895F805D8D9308954C
:1003A00000271127222733278D91882379F0DBDF5F
:1003B000DADFD9DFD8DF5CDF815408F4895F865F3C
:1003C000080F8827181F281F381FEECF0895882789
:1003D0008D93089509919191992351F08A95D9F7B8
:1003E0003197002329F081918D930A958823C9F7CD
:0203F000EECF4E
:00000001FF
