:1000000010C073C0189518951895189518951895DF
:100010001895189518951895189518951895189578
:1000200018958FE58DBFC8E3E0E24E2E81E08EBFCC
:10003000D1E0F1E05F2EA89584B7082E877F84BFBA
:1000400088E1992781BD91BDEEEFF0E0A0E6B0E038
:1000500088278D933197E9F76624D09ABA9885B7A7
:10006000836085BFB898B99AC19A81E0E9E30BD162
:1000700078947BB770647BBF5CEC81E0E9E325D1C9
:1000800054E481E0E9E321D18EEE92E0D6D081E024
:10009000E9E3F9D05CEC81E0E9E317D15EEB81E0C4
:1000A000E9E313D1BB27A6E181E0E9E321E02A934C
:1000B0002ED1A5E6B0E05C93BB27A6E181E0E9E3A1
:1000C00021E02A9324D1A6E6B0E05C93A0E6B0E05C
:1000D000E6E6F0E041D1A0E6B0E055D0E5E6F0E09C
:1000E0003BD181E0E9E3CFD0C7CF0F921F922F928F
:1000F0003F924F925F927F92AF92BF920F931F9366
:100100002F933F934F935F936F937F938F939F931F
:10011000AF93BF93CF93DF93EF93FF938FB78F93FB
:10012000D89AA8E6B0E0E1E058D0D898A8E6B0E0C8
:100130002BD1A7E6B0E00C9300916700003009F0E6
:1001400004C0A0E6B0E073D06CD08F918FBFFF9158
:10015000EF91DF91CF91BF91AF919F918F917F915F
:100160006F915F914F913F912F911F910F91BF9090
:10017000AF907F905F904F903F902F901F900F9087
:100180001895F894FFCF8F938D918823E9F71197F5
:100190008F9108953197F1F70895689462F8089562
:1001A000E89462F808958F939F9388E090E0019718
:1001B000F1F79F918F91089529E0B099FECFF3DF79
:1001C000F2DFF1DF8894B09908942A9519F08795A9
:1001D0009795F6CF0895A8E0B1E0EEDF8D3029F0D5
:1001E000EE23D9F38D93EA95F8CF88278C93089561
:1001F0008F939F9388E090E00197F1F79F918F9103
:10020000089580952AE090E0089410F4C19802C007
:10021000C19A0000EDDFECDF969587952A95A9F746
:1002200008958DE0EEDF8AE0ECCFA8E0B1E08D919B
:10023000882311F0E6DFFBCF0895EF93FF93EE27BD
:10024000E82BE92B31F0EAEFF0E03197F1F7019775
:10025000D1F7FF91EF910895813618F08B3708F4AC
:100260008F7D089591E0882321F08894991F8A95C5
:10027000E9F7892F909508950181082B0183128158
:100280001923128308958CDFFF27ECDFF5DFEF934E
:10029000FF93E4E7F0E07EDFFF91EF91182B1283EC
:1002A00009230183EF93FF93EEE0F0E073DFFF910A
:1002B000EF911081182309F070DFEF93FF93E3E6CD
:1002C000F0E068DFFF91EF910895CCDFFF2721E098
:1002D00048E005C0C7DFFF2729915D9148E0CCDFEA
:1002E000579510F4182B1283EF93FF93EAE0F0E098
:1002F00051DFFF91EF91182B1283EF93E2E0EA9523
:10030000F1F7EF914A9559F72A9539F70895AADF41
:10031000FF27299148E05527AFDF09230183EF9399
:10032000E1E0EA95F1F7EF9188941081182309F044
:1003300008945795EF93FF93EAE0F0E02BDFFF91ED
:10034000EF914A9549F75D932A9521F70895000F9B
:10035000111F221F331F089541E003C042E001C076
:1003600044E0E40F8827F81F8291982F829505D0EA
:10037000892F03D04A95C1F71EC08F708A3008F0CC
:10038000895F805D8D9308950027112722273327E9
:100390008D91882379F0DBDFDADFD9DFD8DF5CDF0E
:1003A000815408F4895F865F080F8827181F281F6B
:0C03B000381FEECF089588278D93089524
:00000001FF
