:100000000C945D000C9485000C9485000C94850084
:100010000C9485000C9485000C9485000C9485004C
:100020000C9485000C9485000C9485000C9485003C
:100030000C9485000C9485000C9485000C9485002C
:100040000C9437010C9485000C9485000C94850069
:100050000C9485000C9485000C9485000C9485000C
:100060000C9485000C94850000000008000201003B
:100070000003040700000000000000000000000072
:10008000250028002B0000000000240027002A0083
:10009000040404040404040402020202020203032E
:1000A0000303030301020408102040800102040836
:1000B0001020010204081020EB0211241FBECFEF14
:1000C000D8E0DEBFCDBF11E0A0E0B1E0EAEBF8E0A0
:1000D00002C005900D92A831B107D9F721E0A8E13F
:1000E000B1E001C01D92A532B207E1F710E0CDE505
:1000F000D0E004C02197FE010E945504CC35D10701
:10010000C9F70E9481010C945B040C94000090E0FC
:10011000FC01E859FF4F2491FC01EC55FF4F34914D
:10012000FC01E057FF4FE491EE23C9F0222339F0A0
:10013000233001F1A8F4213019F1223029F1F0E047
:10014000EE0FFF1FE458FF4FA591B4918FB7F894BD
:10015000EC91611126C030953E233C938FBF0895EA
:100160002730A9F02830C9F0243049F78091800069
:100170008F7D03C0809180008F7780938000DFCFD8
:1001800084B58F7784BDDBCF84B58F7DFBCF809125
:10019000B0008F778093B000D2CF8091B0008F7D78
:1001A000F9CF3E2BDACF3FB7F89480911D019091A3
:1001B0001E01A0911F01B091200126B5A89B05C08A
:1001C0002F3F19F00196A11DB11D3FBFBA2FA92FD6
:1001D000982F8827BC01CD01620F711D811D911DD3
:1001E00042E0660F771F881F991F4A95D1F708953F
:1001F0008F929F92AF92BF92CF92DF92EF92FF9237
:10020000CF93C82F61E00E9487000E94D3004B016A
:100210005C0184EFC82EDD24D394E12CF12C0E94E4
:10022000D300681979098A099B09683E73408105E2
:100230009105A8F321E0C21AD108E108F10888EE7F
:10024000880E83E0981EA11CB11CC114D104E104E6
:10025000F10429F760E08C2FCF91FF90EF90DF90B1
:10026000CF90BF90AF909F908F900C9487001F927B
:100270000F920FB60F9211242F933F938F939F935A
:10028000AF93BF938091190190911A01A0911B0126
:10029000B0911C013091180123E0230F2D3758F540
:1002A0000196A11DB11D209318018093190190930F
:1002B0001A01A0931B01B0931C0180911D01909124
:1002C0001E01A0911F01B09120010196A11DB11D39
:1002D00080931D0190931E01A0931F01B0932001F4
:1002E000BF91AF919F918F913F912F910F900FBE32
:1002F0000F901F90189526E8230F0296A11DB11D9F
:10030000D2CF789484B5826084BD84B5816084BD89
:1003100085B5826085BD85B5816085BD80916E00A3
:10032000816080936E0010928100809181008260D4
:100330008093810080918100816080938100809111
:1003400080008160809380008091B1008460809300
:10035000B1008091B00081608093B00080917A00FC
:10036000846080937A0080917A00826080937A0022
:1003700080917A00816080937A0080917A00806811
:1003800080937A001092C100A4E0B1E08D919D911C
:100390009927FC01EC55FF4F249180579F4FFC019A
:1003A0008491882399F090E0880F991FFC01EA5707
:1003B000FF4FC591D491FC01E458FF4F8591949172
:1003C0008FB7F894E881E22BE8838FBFF1E0A83182
:1003D000BF07E1F6C0E0D0E0C0902101D09022013B
:1003E000E0902301F09024012DEC3CEC4CEC5DE31B
:1003F000C701B6010E94690387FF32C084E090E024
:100400000E94F800C0920001D0920101E092020126
:10041000F092030123E333E343E750E4C701B6015D
:100420000E94E8034B015C01A701960160E070E0C7
:1004300080E89FE30E94FC029B01AC01C501B4016E
:100440000E94E803609321017093220180932301AD
:1004500090932401209709F4BFCF0E940000BCCFE5
:100460002DEC3CEC4CEC5DE3C701B6010E94E303CC
:1004700087FD0DC02DEC3CEC4CE45EE3C701B601FA
:100480000E94690387FF03C085E090E0B9CF2DEC9F
:100490003CEC4CE45EE3C701B6010E94E30387FD38
:1004A0000DC02AE939E949E95EE3C701B6010E94B6
:1004B000690387FF03C086E090E0A2CF2AE939E90B
:1004C00049E95EE3C701B6010E94E30387FD0DC061
:1004D0002DEC3CEC4CEC5EE3C701B6010E946903D5
:1004E00087FF03C087E090E08BCF2DEC3CEC4CEC19
:1004F0005EE3C701B6010E94E30387FD0DC020E063
:1005000030E040E05FE3C701B6010E94690387FF66
:1005100003C088E090E074CF20E030E040E05FE38B
:10052000C701B6010E94E30387FD0DC02AE939E93E
:1005300049E15FE3C701B6010E94690387FF03C079
:1005400089E090E05DCF2AE939E949E15FE3C7013D
:10055000B6010E94E30387FD0DC023E333E343E3C9
:100560005FE3C701B6010E94690387FF03C08AE009
:1005700090E046CF23E333E343E35FE3C701B601F3
:100580000E94E30387FD0DC02DEC3CEC4CE45FE3DF
:10059000C701B6010E94690387FF03C08BE090E0AA
:1005A0002FCF2DEC3CEC4CE45FE3C701B6010E9479
:1005B000E30387FD0DC026E636E646E65FE3C701A6
:1005C000B6010E94690387FF03C08CE090E018CF5A
:1005D0008DE090E015CF8091000190910101A091F4
:1005E0000201B09103018093210190932201A09315
:1005F0002301B093240108955058BB27AA270E94D5
:1006000014030C94A9030E949B0338F00E94A203D8
:1006100020F039F49F3F19F426F40C9498030EF45B
:10062000E095E7FB0C949203E92F0E94BA0358F37C
:10063000BA17620773078407950720F079F4A6F5C7
:100640000C94DC030EF4E0950B2EBA2FA02D0B01B9
:10065000B90190010C01CA01A0011124FF27591B07
:1006600099F0593F50F4503E68F11A16F040A22F0D
:10067000232F342F4427585FF3CF4695379527957E
:10068000A795F0405395C9F77EF41F16BA0B620B7D
:10069000730B840BBAF09150A1F0FF0FBB1F661FC4
:1006A000771F881FC2F70EC0BA0F621F731F841F07
:1006B00048F4879577956795B795F7959E3F08F02D
:1006C000B0CF9395880F08F09927EE0F97958795EF
:1006D00008950E946E0308F481E00895990F0008C0
:1006E000550FAA0BE0E8FEEF16161706E807F90704
:1006F000C0F012161306E407F50798F0621B730B9F
:10070000840B950B39F40A2661F0232B242B252B1F
:1007100021F408950A2609F4A140A6958FEF811DC2
:10072000811D089597F99F6780E870E060E0089563
:100730009FEF80EC089500240A94161617061806F9
:100740000906089500240A941216130614060506D5
:100750000895092E0394000C11F4882352F0BB0F66
:1007600040F4BF2B11F460FF04C06F5F7F4F8F4FC9
:100770009F4F089557FD9058440F551F59F05F3F04
:1007800071F04795880F97FB991F61F09F3F79F0B3
:1007900087950895121613061406551FF2CF469535
:1007A000F1DF08C0161617061806991FF1CF8695B7
:1007B0007105610508940895E894BB27662777279B
:1007C000CB0197F908950E946E0308F48FEF089506
:1007D0000E94FB030C94A9030E949B0338F00E9423
:1007E000A20320F0952311F00C9492030C9498032B
:1007F00011240C94DD030E94BA0370F3959FC1F39A
:10080000950F50E0551F629FF001729FBB27F00DBE
:10081000B11D639FAA27F00DB11DAA1F649F662713
:10082000B00DA11D661F829F2227B00DA11D621F62
:10083000739FB00DA11D621F839FA00D611D221F1C
:10084000749F3327A00D611D231F849F600D211D00
:10085000822F762F6A2F11249F5750409AF0F1F083
:1008600088234AF0EE0FFF1FBB1F661F771F881FEC
:1008700091505040A9F79E3F510580F00C9492038F
:100880000C94DD035F3FE4F3983ED4F386957795AF
:100890006795B795F795E7959F5FC1F7FE2B880F92
:1008A000911D9695879597F90895EE0FFF1F059076
:0A08B000F491E02D0994F894FFCFB5
:1008BA009A99993E040005000600070008000900FD
:0808CA000A000B000C000D00F8
:00000001FF
